:060000000A128A11152905
:100200008A010A140F3982073F3406345B344F34B5
:1002100066346D347D3407347F346F3477347C3406
:1002200039345E34793471340800202134213B2183
:10023000512106185A21861860216C21772118292E
:10024000031783168801890103138316850187012B
:10025000880189010614861403138312850187011E
:100260008601880189010800031383160F140F12F9
:100270008F120F17080003138316811281110115C5
:100280008114011403138312462108009E3081005B
:100290000B1108000B1D4A294621850A051A850104
:1002A00008000A30A0004A21A00B5329880A081A26
:1002B0008801080006185A29A20A221AA201080079
:1002C00086186029A203221A66210800A2012214BE
:1002D000A2142215A2150800220800218700080098
:1002E00022080802A3000800890A8801080070217A
:1002F00023188929A318892923198929A319892948
:10030000231A8929A31A8929231B8929A31B89292F
:04031000742108004C
:04400E00C430FF3F7C
:00000001FF
